:020000040800F2
:1000000028BC0024AD020008797F00089B78000816
:10001000757F00081908000819A4000800000000F6
:1000200000000000000000000000000059850008EA
:100030009911000800000000718000085D8500082B
:10004000C7020008C7020008C7020008C70200086C
:1000500031120008C7020008C7020008C7020008E2
:10006000C7020008C7020008C7020008CD0B00083D
:10007000DD0B0008C7020008C7020008ED0B0008EE
:10008000FD0B0008C702000839060008C702000877
:10009000C7020008C7020008C7020008C70200081C
:1000A000C7020008C7020008C7020008C70200080C
:1000B000C7020008C7020008C7020008C7020008FC
:1000C000C7020008C7020008C7020008C7020008EC
:1000D000C702000855A20008C702000869A200086C
:1000E000C7020008C702000800000000C70200089D
:1000F000C7020008C7020008C7020008C7020008BC
:10010000C7020008C7020008C7020008C7020008AB
:10011000C7020008C7020008C7020008C70200089B
:10012000C7020008C7020008C7020008C70200088B
:10013000C7020008C7020008C7020008C70200087B
:1001400000000000000000000000000000000000AF
:10015000C70200080D0C00081D0C0008C7020008AB
:10016000C7020008C7020008C7020008C70200084B
:10017000C7020008C7020008C7020008000000000C
:10018000C7020008C7020008C7020008A9870008C4
:10019000C7020008C7020008C7020008C70200081B
:1001A000C7020008C7020008C7020008C70200080B
:1001B000C7020008C7020008C7020008C7020008FB
:1001C000C7020008C7020008C7020008C7020008EB
:1001D000C7020008C7020008C7020008C7020008DB
:1001E000C7020008C7020008C7020008C7020008CB
:1001F000C7020008C7020008C7020008C7020008BB
:10020000C7020008C7020008C7020008C7020008AA
:10021000C7020008C7020008C7020008C70200089A
:10022000C7020008C7020008C7020008000000005B
:10023000C7020008C702000800000000C70200084B
:10024000C7020008C7020008C7020008C70200086A
:10025000C7020008C7020008C7020008C70200085A
:10026000C7020008C7020008C7020008C70200084A
:10027000C7020008C7020008C7020008000000000B
:10028000C7020008C7020008C702000800000000FB
:1002900000000000C7020008DFF80CD000F08CF866
:1002A00000480047D9B1000828BC00240648804710
:1002B00006480047FEE7FEE7FEE7FEE7FEE7FEE74B
:1002C000FEE7FEE7FEE7FEE7498600089902000820
:1002D0002DE9F05F0546002092469B46884606467B
:1002E000814640241BE0284641464746224600F00E
:1002F00053F853465A46C01A914110D31146184636
:10030000224600F03AF82D1A67EB01084F462246C4
:100310000120002100F031F817EB00094E41201EAA
:10032000A4F10104DFDC484631462A464346BDE8D5
:10033000F09F40EA01039B0703D009E008C9121FA0
:1003400008C0042AFAD203E011F8013B00F8013B8F
:10035000521EF9D27047D2B201E000F8012B491EBB
:10036000FBD270470022F6E710B513460A46044652
:100370001946FFF7F0FF204610BD202A04DB203A83
:1003800000FA02F1002070479140C2F1200320FAE8
:1003900003F3194390407047202A04DB203A21FAE6
:1003A00002F00021704721FA02F3D040C2F120028E
:1003B0009140084319467047064C074D06E0E06837
:1003C00040F0010394E8070098471034AC42F6D39C
:1003D000FFF766FF54C3000874C300082DE9F05FFF
:1003E000044688464FF000094746206807F079FA2E
:1003F0008246206807F066FA8346BAF1000F02D100
:10040000BBF1000F6ED02068C06800F0007000B330
:10041000607D01281DD1207D01281AD101270FE020
:10042000314881450AD3606D40F010006065A06DD1
:1004300040F00100A0650120BDE8F09F09F101092D
:1004400020680068C0F380100028E9D040202168AF
:100450000860022F10D0206807F043FA60B12068CE
:1004600007F035FA40B920688168204A114041F010
:100470001001816000BF00BF012F10D0206807F07D
:1004800021FA60B1206807F022FA40B9206881683B
:10049000164A114041F02001816000BF00BF022FC9
:1004A00003D0032F03D10C2503E0082501E0042528
:1004B00000BF00BF04F06EFC06460EE004F06AFCCC
:1004C000801B052809D9606D40F010006065A06DA3
:1004D00040F00100A0650120AEE720688068284058
:1004E0000028EBD10020A7E700DC0C00C0FFFF7F55
:1004F00070B50446206807F0EAF90646206807F060
:10050000EBF970B36EBB2068806800F00D00012825
:100510000AD120688168174A1140891C816000BF98
:1005200003202168086009E0606D40F010006065FC
:10053000A06D40F00100A065012070BD04F02AFC10
:1005400005460FE004F026FC401B02280AD9606D26
:1005500040F010006065A06D40F00100A065012032
:10056000EBE705E02068806800F001000028E9D191
:100570000020E2E7C0FFFF7F70B50446206807F067
:10058000ABF900284CD1206880682649084048B162
:10059000606D40F010006065A06D40F00100A06546
:1005A000012070BD206807F07BF904F0F3FB0546DD
:1005B0001D4A2168914203D01C4A2168914201D111
:1005C0001B4900E01B49084607F077F90646174922
:1005D0002068884201D1144800E0206821688842E0
:1005E00000D0E6B915E0206807F076F910B9206868
:1005F00007F056F904F0CEFB401B022809D9606DC4
:1006000040F010006065A06D40F00100A065012081
:10061000C7E72068006800F001000028E3D000BFB1
:100620000020BEE73F000080002002400021024081
:10063000002302400063025810B5034801F088FC13
:10064000024801F085FC10BD287000248C70002445
:1006500010B5044A0449054800F01EF80449087022
:1006600010BD0000CD0A0008850A0008C90A00086C
:100670003000002410B5044A0449054800F00CF885
:100680000449087010BD00006F8200082182000834
:10069000658200081400002470B503460C46002152
:1006A00000BF0FE0214800EB01108068A04207D195
:1006B0001E4800EB01104068984201D1002070BD37
:1006C000481CC1B21A4800788142EBDB1848007818
:1006D000202829DA17480068401C164D2860134D61
:1006E000134E367805EB061528601048104D2D780E
:1006F00000EB051043600D480D4D2D7800EB051003
:1007000084600A480A4D2D7800EB0510C260012074
:10071000094D074E3678A85505480078401C044D11
:10072000287004480068CAE70020C8E7087A002457
:100730009400002498000024E879002410B5044AAD
:1007400004490548FFF7A8FF0449087010BD0000E0
:1007500089A200087DA2000885A20008520000249A
:1007600010B5044A04490548FFF796FF044908708C
:1007700010BD000015A4000809A4000811A4000879
:10078000440000242DE9F041ADF5027D07460C46FA
:100790002CB94FF0FF300DF5027DBDE8F081A07A55
:1007A0001A49085C6188CDE90010627A217A3B46DB
:1007B00020460AF02EF902AE608800F10802211DE1
:1007C0003046FFF7B6FD6088083000EB0608207859
:1007D00088F800002088001288F8010060880A303C
:1007E00085B200BF0A490978C1EB011202EB411141
:1007F000084A02EB81002A4602A90AF0BDFF002840
:1008000002DA6FF00200C6E70120C4E73CBD000831
:10081000470000245837002400BFFEE710B55748B2
:10082000007801284ED15648006856490968884228
:1008300005D35348006853490968401A06E05148F7
:100840000068C0F1FF304E49096808444E49096804
:1008500088420FD34D48007801280BD148480068E2
:100860004B4908600020494908700022042149488A
:1008700004F084FA4248006845490968884205D373
:100880003F48006842490968401A06E0404800684D
:10089000C0F1FF303A49096808443F490968884275
:1008A0006AD33A480078002866D13548006835494F
:1008B000086001203549087001220421354804F000
:1008C0005DFA59E02E4800682E490968884205D330
:1008D0002B4800682B490968401A06E0294800683F
:1008E000C0F1FF3026490968084427490968884251
:1008F00013D32648007801280FD128480078002813
:100900000BDB1F4800682249086000201F4908705F
:10091000002204211F4804F031FA194800681C49DC
:100920000968884205D31648006819490968401AC1
:1009300006E017480068C0F1FF3011490968084413
:1009400015490968884217D310480078A0B91348A0
:100950000078002810DD0A4800680A490860012074
:100960000A490870012204210A4804F007FA0B48DA
:100970000078401E0949087010BD00008000002466
:10098000100000248C000024840000248300002434
:1009900090000024001002588800002482000024E7
:1009A0002DE9F04104460D4616461F46DDF8188035
:1009B0002B48007885422CDC2A48007848BB2A481E
:1009C00004702848067028480078012802D1FF20CA
:1009D00024490870254807602548C0F8008025484C
:1009E0000068254908601F480078002833DD1E484C
:1009F000007801282FD0012020490870012204210D
:100A00001F4804F0BBF917480078401E15490870CC
:100A100021E01348007885421DDD13480470114819
:100A20000670124807601248C0F80080114800683C
:100A3000114908600B48007800280CDD01200F499F
:100A40000870012204210E4804F098F90548007846
:100A5000401E0449087003480078BDE8F08100009A
:100A600081000024820000248000002484000024EF
:100A700088000024100000248C000024830000243F
:100A80000010025810B507F079FA0D4800680D49BA
:100A90000968884205D30A4800680A490968401A6B
:100AA00006E008480068C0F1FF30054909680844BD
:100AB000B0F57A7F03D3024800680249086010BD90
:100AC00010000024380000240020704700207047E8
:100AD0002DE9F0414FF00008294800682949884273
:100AE00003D14FF0FF30BDE8F08127480068401C7B
:100AF00028B92448224908606FF00100F3E7002577
:100B00001F48006A870A1E48008CC0F309040026AB
:100B100010E01D4968184FF480621C4900F0E8FCA1
:100B200005F5806542464FF4807118480AF038FA9E
:100B30008046761CBE42ECD3ACB1134968182246FD
:100B4000124900F0D5FC04F0030028B10F49081940
:100B5000FF220321FFF7FFFBE01C810842460B4800
:100B60000AF01EFA80460648406A404505D005480E
:100B7000034908606FF00300B5E70120B3E7000008
:100B8000C80700240056341200000408B0000024F6
:100B900010B5002007490870074908700749086028
:100BA000074908600749087000220421064804F03C
:100BB000E5F810BD80000024820000248400002499
:100BC00088000024830000240010025810B5024859
:100BD00002F088FA10BD0000043A002410B5024863
:100BE00002F080FA10BD00008C39002410B50248D4
:100BF00002F078FA10BD0000F43A002410B5024863
:100C000002F070FA10BD00007C3A002410B50248D2
:100C100002F068FA10BD0000E43B002410B5024861
:100C200002F060FA10BD00006C3B00240146374A18
:100C30000868904249D0354A18320868904244D03A
:100C4000324A3032086890423FD0304A4832086811
:100C500090423AD02D4A60320868904235D02B4AF3
:100C600078320868904230D0284A90320868904222
:100C70002BD0264AA8320868904226D0244A086819
:100C8000904222D0224A1832086890421DD0204A51
:100C900030320868904218D01D4A483208689042A5
:100CA00013D01B4A6032086890420ED0184A78323E
:100CB0000868904209D0164A90320868904204D0E1
:100CC000134AA8320868904201D1012000E00020B8
:100CD000B0B10A78103A1823B2FBF3F000F0070223
:100CE0000C4B9A5CCA65032805D90A686FF30902A0
:100CF000121D8A6503E00A686FF309028A6503E042
:100D0000086820F0FF008865886D70471000024079
:100D1000100402404CC3000810B502682B4C036855
:100D2000A34222D0294C14340368A3421DD0274C7F
:100D300028340368A34218D0244C3C340368A342EF
:100D400013D0224C50340368A3420ED01F4C64349D
:100D50000368A34209D01D4C78340368A34204D031
:100D60001A4C8C340368A34201D1012300E0002314
:100D70008BB10378083B1424B3FBF4F1144B03EB61
:100D800081030366124B8033436601F01F04012385
:100D9000A340836618E00378103B1824B3FBF4F1FA
:100DA0000C4B9A4204D80B4BA83B9A4200D3083113
:100DB000094B03EB81030366074B8033436601F065
:100DC0001F040123A340836610BD0000085402588D
:100DD00000580258B8040240000802400179A9B343
:100DE000082940D8204B02689A4222D01E4B143367
:100DF00002689A421DD01C4B283302689A4218D0D0
:100E0000194B3C3302689A4213D0174B5033026897
:100E10009A420ED0144B643302689A4209D0124BA6
:100E2000783302689A4204D00F4B8C3302689A429E
:100E300001D1012200E000224AB14A1E0B4B03EB14
:100E40008202C266094A4032026708E00BE04A1E8D
:100E5000074B03EB8202C266054A403202674A1E14
:100E600001239340436770470854025800590258C1
:100E700000090240014600208A69D2B98A6A32B16B
:100E8000012A0DD0022A03D0032A10D10EE000BFA0
:100E9000CA6A02F08072B2F1807F00D1012007E0BF
:100EA000CA6AB2F1C07F00D1012001E000E000BFBA
:100EB00036E08A69B2F5005F1BD18A6A32B1012A35
:100EC00007D0022A03D0032A11D10AE000BF012073
:100ED0000EE0CA6A02F08072B2F1807F00D1012078
:100EE00006E0CA6AB2F1C07F00D1012000E000BF75
:100EF00016E08A6A32B1012A05D0022A04D0032AF8
:100F00000CD103E000BF00BF012008E0CA6A02F074
:100F10008072B2F1807F00D1012000E000BF00BFED
:100F200070470000F0B5856D846D984F0668BE422D
:100F300070D0964F18370668BE426BD0934F30374B
:100F40000668BE4266D0914F48370668BE4261D0FF
:100F50008E4F60370668BE425CD08C4F783706688B
:100F6000BE4257D0894F90370668BE4252D0874F55
:100F7000A8370668BE424DD0854F0668BE4249D0AC
:100F8000834F18370668BE4244D0814F3037066819
:100F9000BE423FD07E4F48370668BE423AD07C4FB3
:100FA00060370668BE4235D0794F78370668BE4252
:100FB00030D0774F90370668BE422BD0744FA83799
:100FC0000668BE4226D0734F0668BE4222D0714FDB
:100FD00014370668BE421DD06E4F28370668BE42E1
:100FE00018D06C4F3C370668BE4213D0694F50375B
:100FF0000668BE420ED0674F64370668BE4209D00D
:10100000644F78370668BE4204D0624F8C3706685A
:10101000BE4201D1012600E000263EB1D0E919769A
:101020007E60C66E16B1D0E91C767E60574F0668AA
:10103000BE4249D0554F18370668BE4244D0534F80
:1010400030370668BE423FD0504F48370668BE4230
:101050003AD04E4F60370668BE4235D04B4F783796
:101060000668BE4230D0494F90370668BE422BD04A
:10107000464FA8370668BE4226D0454F0668BE4296
:1010800022D0434F18370668BE421DD0404F30373C
:101090000668BE4218D03E4F48370668BE4213D09D
:1010A0003B4F60370668BE420ED0394F783706682E
:1010B000BE4209D0364F90370668BE4204D0344F46
:1010C000A8370668BE4201D1012600E00026DEB145
:1010D00090F85C6006F01F073F26BE40AE600668D1
:1010E000366826F4802607683E6006687360866866
:1010F000402E04D10668B2600668F16044E00668DC
:10110000B1600668F2603FE0224F0668BE4222D01E
:10111000204F14370668BE421DD01E4F2837066880
:10112000BE4218D01B4F3C370668BE4213D0194F41
:1011300050370668BE420ED0164F64370668BE426E
:1011400009D0144F78370668BE4204D0114F8C374F
:101150000668BE4201D1012600E00026A6B190F843
:101160005C6006F01F070126BE406660066873607B
:101170008668402E04D10668B2600668F16003E01C
:101180000668B1600668F260F0BD00001000024021
:10119000100402400854025870472DE9F0410646F9
:1011A0000C46A57A01274FF0000804F10C0800BF97
:1011B000D02D01DBFF2D01DD032D03D1214630466B
:1011C00009F02CF900BF00BF0020BDE8F08100004D
:1011D00010B501F001037BB1134BDB6823F4E66328
:1011E000114CE36042F0040343EA002343F0800320
:1011F000E46823430C4CE36001F00203022B12D19C
:101200000A4B1B6823F4E663074CC4F80C3142F028
:10121000040343EA002343F08003D4F80C41234342
:10122000014CC4F80C3110BD002000520C210052BA
:1012300010B503F0E5F9094800690949084010B103
:10124000084606494861074800680749084018B140
:1012500003480449091D086010BD00000020005229
:101260000000EE17102100520000EE9701F003027B
:10127000032A1BD1234AD26822F03002214BDA60C4
:10128000214A126822F03002C3F80C211A46D268B3
:101290000243DA601A46D2F80C210243C3F80C214B
:1012A0001A46926942F010029A6129E001F00102A7
:1012B00072B1144AD26822F03002124BDA601A4638
:1012C000D2680243DA601A46D26842F08802DA60D5
:1012D00001F00202022A13D10B4A126822F03002F6
:1012E000084BC3F80C211A46D2F80C210243C3F86C
:1012F0000C211A46D2F80C2142F08802C3F80C21C6
:1013000070470000002000520C2100522DE9F041EE
:1013100006460F46042435480069354900EA0105B0
:1013200003F038FD8046022F06D13248006832496A
:10133000084040F00045314C0BE0701C48B103F010
:1013400029FDA0EB0800B04200D816B90320BDE883
:10135000F0812B482040A04208D124480069204059
:10136000A04201D101200DE000200BE021480068DF
:1013700024F00041084024F00041884201D10120BE
:1013800000E000200028D8D125F0004090B11D4891
:10139000806928431B49886119482840A84202D126
:1013A0001248456104E025F000401249091D08601B
:1013B0000120CCE7012F0AD10C48006900F48030ED
:1013C000B0F5803F0FD13804084948610BE0094867
:1013D000006800F48030B0F5803F04D14FF48030D5
:1013E0000449091D08600020B1E7000000200052F8
:1013F0000000EE17102100520000EE97040000805C
:101400000F00EF1F087C002470B5074800F0A2F918
:101410000446064800F09EF9001B451C012229469F
:10142000204600F013F870BD00000408FFFF0D080F
:1014300070B5054800F08EF90546012401222146C9
:10144000284600F003F870BD00000208F8B5064613
:101450000C4615460020009000270CB1082C02D93C
:101460004FF0FF30F8BD012D04D0022D02D04FF017
:10147000FF30F7E702E01948194948611848006948
:10148000164908400028F6D102E0144815490860C2
:101490001448001F0068144908400028F5D103F0E3
:1014A00075FA002011490860202008610120486079
:1014B00008468660C460694603F002F808B14FF040
:1014C000FF37294641F28830FFF720FF08B14FF07F
:1014D000FF3703F0A1F93846C4E700000000EE171B
:1014E00000200052142100520000EE97F46F0024F7
:1014F0002DE9F04780460D461646C14602E01D48DC
:101500001D4948611C4800691A4908400028F6D165
:1015100002E01848194908601848001F0068184977
:1015200008400028F5D103F031FA00241AE059F8F8
:10153000047B2F55601CB04200D315E0C7F3072190
:10154000601C2954A01CB04200D30DE0C7F3074132
:10155000A01C2954E01CB04200D305E0390EE01C69
:101560002954241DB442E2D300BF03F055F9BDE86D
:10157000F08700000000EE170020005214210052F6
:101580000000EE972DE9F04704460F461546B94690
:10159000244884420BD360192349884207D8234842
:1015A00000882349096801EB8000A04203D04FF076
:1015B000FF30BDE8F08704F0030010B905F0030028
:1015C00010B14FF0FF30F4E74FEA950803F0DEF971
:1015D000002620E059F826001649144A128841F8DE
:1015E000220012480088401C80B210490880082858
:1015F00010D1002008800F4A0D480168012003F037
:101600002FF910B16FF00100D3E7094800682030CE
:1016100007490860761C4645DCDB03F0FDF82846E8
:10162000C7E7000000000408FFFF0D085800002471
:1016300054000024087000242DE9F0470546884630
:101640001646C2460027D02E05D12448854202D333
:101650002348854203D94FF0FF30BDE8F08705F0FD
:10166000030010B906F0030010B14FF0FF30F4E7AB
:101670004FEA960903F08AF9002413E05AF824008F
:10168000184941F82700781C0746082809D1002787
:101690000A462946012003F0E3F808B1B81EDCE74A
:1016A0002035641C4C45E9DB002F12DD3C4605E08B
:1016B0004FF0FF300B4941F82400641C082CF7DB85
:1016C000084A2946012003F0CBF810B16FF0010061
:1016D000C3E703F0A1F83046BFE7000000000208AE
:1016E00030FF03080870002410B51048008808B9BE
:1016F000002010BD0D48048805E04FF0FF300C4974
:1017000041F82400641C082CF7DB03F03FF9084A79
:1017100008480168012003F0A3F810B16FF0010040
:10172000E7E703F079F801480088E2E75800002471
:101730000870002454000024034804490860002075
:10174000034908807047000000000408540000248A
:101750005800002401460020384A914202D2B1F1DB
:10176000006F05D2364A914204D2B1F1016F01D324
:10177000002062E0334A914202D2304A914205D2BF
:10178000314A914204D22E4A914201D3012054E0C1
:101790002E4A914202D22B4A914205D22C4A9142C2
:1017A00004D2294A914201D3022046E0294A9142BB
:1017B00002D2264A914205D2274A914204D2244AB3
:1017C000914201D3032038E0244A914202D2214AB7
:1017D000914205D2224A914204D21F4A914201D33A
:1017E00004202AE01F4A914202D21C4A914205D2AB
:1017F0001D4A914204D21A4A914201D305201CE0AD
:101800001A4A914202D2174A914205D2184A91428D
:1018100004D2154A914201D306200EE0B1F1016FC6
:1018200002D2124A914205D2124A914204D2104A7F
:10183000914201D3072000E0072070470000020812
:101840000000120800000408000014080000060848
:1018500000001608000008080000180800000A0828
:1018600000001A0800000C0800001C0800000E0808
:1018700000001E08FFFF1F0810B500244FF4006190
:10188000344803F073FA48B93348007830B901207E
:101890003149087031480068314908602E480078A5
:1018A000012854D1C1022B4803F060FA012824D149
:1018B0002A4800682A490968884205D327480068F1
:1018C00027490968401A06E025480068C0F1FF3042
:1018D000224909680844044600201F49087021492C
:1018E0000870012C09D9B4F57A7F06D209F03CFCC6
:1018F00018B902201C49087010BD18480068184922
:101900000968884205D31548006815490968401AD6
:1019100006E013480068C0F1FF3010490968084428
:10192000B0F57A7F13D94FF400610A4803F01EFA2C
:1019300068B90C48007850B901200A4908700A4972
:10194000087006480068094908600120D4E70020B3
:10195000D2E70000001002581500002410000024F7
:101960001800002416000024170000241C00002486
:101970007047704770477047704700002DE9F84F77
:1019800004460D464FF0000A0020009094F83800FD
:10199000012800D100E000BFF749E868884200D084
:1019A0000EE0F6492068884200D100BFF449206863
:1019B000884200D100BFF3492068884200D100BFAF
:1019C00000BF94F85000012802D10220BDE8F88F32
:1019D000012084F8500000BF206805F082FF002835
:1019E0007ED12068C1692868C0F3130018B928683F
:1019F000C0F3846004E0286890FAA0F0B0FA80F0A8
:101A000000F01F020120904001432068C16121685D
:101A1000D5E9002001F1300CC0F3012B0CEB8B0356
:101A2000D3F800C000F01F0E4FF01F0B0BFA0EFB97
:101A30002CEA0B0C00F01F0BC2F3846E0EFA0BFEA7
:101A40004CEA0E0CC3F800C000BF206805F049FF47
:101A50008146206805F036FF8046B9F1000F6FD14E
:101A6000B8F1000FFBD1AA682968206805F050FF83
:101A7000C548006800F07040B0F1805F07D1686928
:101A80002168C968C1F382014900884014E02068D8
:101A9000C06800F0100038B968692168C968C1F3EE
:101AA00082014900884007E068692168C96801F03F
:101AB000100189084900884007462869042840D059
:101AC00020682A68296900F1600C0CEB8103D3F8C7
:101AD00000C00CF0004C02F0F84B4BEA070B00E0A2
:101AE000C9E14CEA0B0CC3F800C000BF20686A7E55
:101AF0002969012A01D1D20700E00022134600F132
:101B0000600C0CEB8102D2F800C02CF0004C4CEAC7
:101B1000030CC2F800C000BF20682B7E2969012B8E
:101B200001D1DB0200E000231A46036923F4F043ED
:101B300001F01F0C02FA0CFC43EA0C03036100BF26
:101B400037E02068006E00F0F8402978B0EB816F34
:101B500005D12068006E20F00040216808662068EA
:101B6000406E00F0F8402978B0EB816F05D1206815
:101B7000406E20F00040216848662068806E00F0CA
:101B8000F8402978B0EB816F05D12068806E20F095
:101B90000040216888662068C06E00F0F84029780F
:101BA000B0EB816F05D12068C06E20F00040216845
:101BB000C866206805F090FE002870D12068EA68A9
:101BC0002968D0F8C0C0C1F313032CEA030C02F05B
:101BD000180B6E4B23FA0BF30B404CEA030CC0F8C6
:101BE000C0C000BF6449E86888427DD12B68C3F358
:101BF00013031BB92B68C3F3846304E02B6893FAC7
:101C0000A3F3B3FA83F35B1C03F01F03092B3ED845
:101C10002B68C3F313031BB92B68C3F3846304E07D
:101C20002B6893FAA3F3B3FA83F35B1C03F01F034F
:101C30004FF0010C0CFA03FC2B68C3F313031BB920
:101C40002B68C3F3846304E02B6893FAA3F3B3FA1D
:101C500083F35B1C03F01F034CEA836C2B68C3F314
:101C600013031BB92B68C3F3846304E02B6893FA56
:101C7000A3F3B3FA83F35B1C03F01F0303EB4303EB
:101C80004FF0000B4BEA03534CEA030341E02B688F
:101C9000C3F3130323B92B68C3F3846305E0A8E0FF
:101CA0002B6893FAA3F3B3FA83F35B1C03F01F03CF
:101CB0004FF0010C0CFA03FC2B68C3F313031BB9A0
:101CC0002B68C3F3846304E02B6893FAA3F3B3FA9D
:101CD00083F35B1C03F01F034CEA836C2B68C3F394
:101CE00013032BB92B6800E018E0C3F3846304E00E
:101CF0002B6893FAA3F3B3FA83F35B1C03F01F037F
:101D00000A3B03EB43034FF0007B4BEA03534CEADF
:101D100003031946AA68206805F0FAFD286800F058
:101D20000040002865D0154A2168914203D0144A2A
:101D30002168914201D1164900E0164908468168A0
:101D400001F0E07600BF0D492068884203D00C49BD
:101D50002068884201D10E4800E00E480C498842B4
:101D60001AD1064805F0B8FD8346054805F0B4FDD4
:101D70004BEA000013E000000000FF470020024093
:101D800000210240006002580010005CFFFF0F00BD
:101D900000230240006302583D4805F09DFDE8BB6A
:101DA0003C492868884225D106F4000010BB384918
:101DB0002068884265D1384B22689A4203D0374B5D
:101DC00022689A4201D1364A00E0364A104646F46B
:101DD000000105F0B1FD344800683449B0FBF1F072
:101DE0004000009002E00098401E009000980028FB
:101DF000F9D146E02E492868884219D106F0807052
:101E0000B0B92349206888423BD1234B22689A42CB
:101E100003D0224B22689A4203D100E024E0204AFA
:101E200000E0204A104646F0807105F085FD28E06C
:101E300020492868884224D106F4800008BB144950
:101E4000206888421DD1144B22689A4203D0134B5C
:101E500022689A4201D1124A00E0124A104646F422
:101E6000800105F069FD0CE0606D40F020006065C8
:101E70004FF0010A05E0606D40F0200060654FF012
:101E8000010A00BF002084F8500000BF50469DE5C5
:101E900000600258000084CB002002400021024074
:101EA00000230240006302589C000024400D030000
:101EB000000052C70000B8CF10B504462068006C7F
:101EC0001C491D4A127841F822001B48007820B1B5
:101ED00001280ED002282AD11AE0062217491848F4
:101EE00009F08CF8164800F0E1F901201249087059
:101EF0001EE0134800F0D0FA06221249124809F0F9
:101F00007DF8114800F0D2F902200B4908700FE06B
:101F10000D4800F0C1FA06220A49094809F06EF896
:101F2000074800F0C3F900200349087000E000BF33
:101F300000BF10BDFC700024600000244000201988
:101F400028700024040060088C7000247047000092
:101F50002DE9F84F044600200090206805682068AD
:101F60004668CD4A2168914203D0CC4A216891420B
:101F700001D1CB4900E0CB49084605F09EFC07465D
:101F800005F00200022811D106F0020002280DD14E
:101F9000606D00F0100018B9606D40F4006060657D
:101FA0002046FFF7E5FC02202168086005F00400E8
:101FB000042803D106F00400042807D005F0080027
:101FC00008285DD106F00800082859D1606D00F09E
:101FD000100018B9606D40F400706065206805F06D
:101FE00085FC002846D0AD492068884201D1AA4826
:101FF00000E020682168884204D01FB1052F01D07D
:10200000092F03D12068D0F80C8009E0A34920688B
:10201000884201D1A04800E020688346DBF80C80AC
:1020200008F40050B0F5005F24D02068006800F08C
:10203000080008281ED1206805F053FC90B92068DC
:10204000406820F00C0021684860606D20F48070CA
:102050006065606D00F4805060B9606D40F0010013
:10206000606507E0606D40F010006065A06D40F0B5
:102070000100A0652046FFF71FFF0C2021680860C3
:1020800005F02000202803D106F02000202807D0EA
:1020900005F04000402870D106F0400040286CD187
:1020A000606D00F0100018B9606D40F4005060657C
:1020B0002068C16C01F4C07109B9012100E0002160
:1020C0008A4600BF206805F011FC814673492068EC
:1020D000884201D1704800E020682168884204D01D
:1020E0001FB1062F01D0072F03D12068D0F80C8034
:1020F00009E06A492068884201D1674800E0206809
:102100008346DBF80C80BAF1000F08D108F00070AC
:1021100020BBB9F1000F2AD008F40050F0B92068B4
:10212000006800F04000402821D108F40010A8B950
:10213000206805F0C7FB90B92068406820F0600077
:1021400021684860606D20F480506065606D00F427
:10215000807018B9606D40F00100606507E0606D47
:1021600040F010006065A06D40F00100A0652046C1
:10217000FFF7FFFB60202168086005F080008028E1
:102180000DD106F08000802809D1606D40F48030C8
:102190006065204600F088F880202168086005F41A
:1021A0008070B0F5807F0FD106F48070B0F5807F2D
:1021B0000AD1606D40F4003060652046FFF7DBFB1C
:1021C0004FF480702168086005F40070B0F5007F5E
:1021D0000FD106F40070B0F5007F0AD1606D40F4B5
:1021E000802060652046FFF7C7FB4FF40070216830
:1021F000086005F01000102833D106F010001028F8
:102200002FD1206B10B90120009019E08FB1224A24
:102210002168914203D0214A2168914201D120498D
:1022200000E02049084605F043FB48B1012000903A
:1022300006E02068C06800F0030008B101200090AB
:10224000009801280AD1606D40F480606065A06D3F
:1022500040F00200A0652046FFF778FE10202168BC
:10226000086005F48060B0F5806F13D106F48060DB
:10227000B0F5806F0ED1606D40F480406065A06D58
:1022800040F00800A0654FF4806021680860204697
:10229000FFF770FBBDE8F88F0020024000210240EC
:1022A0000023024000630258704700002DE9F0410E
:1022B0000446754A2168914203D0744A21689142CC
:1022C00001D1734900E07349084605F0F6FA054666
:1022D000206805F006FB00287ED100BF94F850006E
:1022E000012802D10220BDE8F081012084F85000CD
:1022F00000BF2046FEF740F90646002E6DD1606D06
:1023000040F60161884340F4807060655F49206851
:10231000884201D15C4800E020682168884200D0F2
:102320001DB9606D20F480106065606D00F4805010
:1023300020B1A06D20F00600A06501E00020A0659E
:102340001C202168086000BF002084F8500000BFF6
:102350002068406820F01C00216848602069082837
:1023600006D12068406840F008002168486006E017
:102370002068406840F004002168486000BF00BF4A
:10238000206B28B92068406840F010002168486040
:102390003E492068884201D13B4800E0206821681E
:1023A000884204D01DB1052D01D0092D2FD1206800
:1023B000C06800F0007030B3606D20F4005040F44D
:1023C00080506065206908280FD12068406820F09F
:1023D00020002168486001E052E04CE0206840683D
:1023E00040F04000216848600CE02068406820F020
:1023F0004000216848602068406840F02000216863
:10240000486000BF00BF206805F07AFA39E0606DCF
:1024100040F4801060651D492068884201D11A4847
:1024200000E020680746F86800F0007010B3606DA7
:1024300020F4005040F480506065206908280CD1D9
:102440002068406820F020002168486020684068CB
:1024500040F04000216848600CE02068406820F0AF
:102460004000216848602068406840F020002168F2
:10247000486000BF05E000BF002084F8500000E085
:10248000022630462FE700000020024000210240D3
:10249000002302400063025870B5044600BF94F860
:1024A0005000012801D1022070BD012084F85000A5
:1024B00000BF03212046FDF791FF054685B920683E
:1024C000406820F01C00216848602046FEF710F8A4
:1024D00005462DB9606D20F4885040F0010060651C
:1024E00000BF002084F8500000BF2846DCE7000051
:1024F0002DE9F041044602F04DFC804614B901205C
:10250000BDE8F08194F83500022808D0802060658D
:1025100000BF002084F8340000BF0120F0E7FE492E
:102520002068884249D0FC4918312068884244D04C
:10253000F9493031206888423FD0F7494831206856
:1025400088423AD0F44960312068884235D0F24957
:1025500078312068884230D0EF4990312068884235
:102560002BD0ED49A8312068884226D0EB4920685D
:10257000884222D0E9491831206888421DD0E749B5
:1025800030312068884218D0E449483120688842B8
:1025900013D0E2496031206888420ED0DF4978319B
:1025A0002068884209D0DD4990312068884204D0F3
:1025B000DA49A8312068884201D1012000E00020DA
:1025C00068B12068006820F01E002168086020685B
:1025D000406920F0800021684861256806E0206895
:1025E000006820F00E00216808602568CA4920684C
:1025F000884270D0C8491831206888426BD0C649DB
:1026000030312068884266D0C3494831206888420A
:1026100061D0C1496031206888425CD0BE497831C0
:102620002068884257D0BC4990312068884252D0F7
:10263000B949A831206888424DD0B84920688842FD
:1026400049D0B64918312068884244D0B349303166
:10265000206888423FD0B1494831206888423AD04A
:10266000AE4960312068884235D0AC497831206865
:10267000884230D0A9499031206888422BD0A749A0
:10268000A8312068884226D0A5492068884222D0F7
:10269000A3491431206888421DD0A14928312068FF
:1026A000884218D09E493C312068884213D09C490A
:1026B0005031206888420ED09949643120688842A0
:1026C00009D0974978312068884204D094498C31E8
:1026D0002068884201D1012000E0002028B1206E4E
:1026E000006820F48070216E08608B492068884261
:1026F00049D0894918312068884244D08649303110
:10270000206888423FD084494831206888423AD0C6
:10271000814960312068884235D07F49783120680E
:10272000884230D07C499031206888422BD07A4949
:10273000A8312068884226D078492068884222D073
:1027400076491831206888421DD07449303120689C
:10275000884218D0714948312068884213D06F49A7
:102760006031206888420ED06C49783120688842F8
:1027700009D06A4990312068884204D06749A8315D
:102780002068884206D12068006820F00100216896
:10279000086005E02068006820F0010021680860FA
:1027A00011E002F0F7FAA0EB080005280BD9202071
:1027B000606500BF002084F8340000BF032084F867
:1027C000350001209CE6286800F001000028E8D1CF
:1027D00051492068884249D04F49183120688842C1
:1027E00044D04D493031206888423FD04A49483171
:1027F000206888423AD0484960312068884235D004
:10280000454978312068884230D04349903120686A
:1028100088422BD04049A8312068884226D03F49C1
:102820002068884222D03D491831206888421DD056
:102830003A4930312068884218D0384948312068F8
:10284000884213D035496031206888420ED0334920
:1028500078312068884209D0304990312068884218
:1028600004D02E49A8312068884201D1012000E01F
:10287000002040B1A66D94F85C0000F01F013F20DD
:102880008840B06007E0A76D94F85C0000F01F017D
:1028900001208840786020492068884276D01E490F
:1028A00018312068884271D01B4930312068884235
:1028B0006CD0194948312068884267D01649603188
:1028C0002068884262D014497831206888425DD0FF
:1028D000114990312068884258D00F49A8312068AA
:1028E000884253D00D49206888424FD00B49183197
:1028F000206888424AD0094930312068884245D052
:10290000064948312068884240D004496031206837
:1029100088423BD0014905E010000240100402400B
:10292000085402587831206888422FD02549206801
:1029300088422BD0234918312068884226D022496A
:102940002068884222D020491431206888421DD056
:102950001D4928312068884218D01B493C31206825
:10296000884213D018495031206888420ED0164949
:1029700064312068884209D0134978312068884240
:1029800004D011498C312068884201D1012000E037
:10299000002068B1D4E919104860E06E40B1E06EE3
:1029A000006820F48070E16E0860D4E91C10486073
:1029B00000BF002084F8340000BF012084F83500F7
:1029C00000209DE5A00402400854025870B504465A
:1029D0000CB9012070BD94F83500022803D0802086
:1029E00060650120F6E7DC492068884249D0DA4971
:1029F00018312068884244D0D74930312068884255
:102A00003FD0D5494831206888423AD0D249603118
:102A10002068884235D0D04978312068884230D04B
:102A2000CD499031206888422BD0CB49A83120680D
:102A3000884226D0C9492068884222D0C749183127
:102A4000206888421DD0C54930312068884218D09E
:102A5000C24948312068884213D0C049603120689B
:102A600088420ED0BD4978312068884209D0BB49E0
:102A700090312068884204D0B849A8312068884243
:102A800001D1012000E00020F0B3042084F83500DB
:102A9000B149206888424BD0AF491831206888423C
:102AA00046D0AD4930312068884241D0AA494831EA
:102AB000206888423CD0A84960312068884237D0DD
:102AC000A54978312068884232D0A34990312068E6
:102AD00088422DD0A049A8312068884228D09F493B
:102AE0002068884224D09D491831206888421FD030
:102AF0009A493031206888421AD098494831206874
:102B0000884215D0954900E020E060312068884275
:102B10000ED0924978312068884209D08F4990318F
:102B20002068884204D08D49A8312068884206D1A7
:102B30002068006820F001002168086009E1206831
:102B4000006820F001002168086002E12068006848
:102B500020F00E00216808607F492068884249D033
:102B60007D4918312068884244D07B493031206843
:102B700088423FD078494831206888423AD0764927
:102B800060312068884235D07349783120688842A6
:102B900030D071499031206888422BD06E49A831DD
:102BA0002068884226D06D492068884222D06B492F
:102BB0001831206888421DD0684930312068884229
:102BC00018D0664948312068884213D06349603183
:102BD000206888420ED0614978312068884209D047
:102BE0005E4990312068884204D05C49A831206851
:102BF000884206D12068006820F001002168086042
:102C000005E02068006820F0010021680860524952
:102C10002068884270D050491831206888426BD0B3
:102C20004D4930312068884266D04B494831206890
:102C3000884261D048496031206888425CD046496A
:102C400078312068884257D04349903120688842C3
:102C500052D04149A831206888424DD03F49206870
:102C6000884249D03D4918312068884244D03B49C8
:102C70003031206888423FD0384948312068884246
:102C80003AD0364960312068884235D033497831AE
:102C90002068884230D031499031206888422BD05A
:102CA0002E49A8312068884226D02D4920688842C4
:102CB00022D02B491431206888421DD02849283160
:102CC0002068884218D026493C312068884213D0B9
:102CD00023495031206888420ED021496431206850
:102CE000884209D01E4978312068884204D01C49A6
:102CF0008C312068884201D1012000E00020D8B149
:102D0000206E006820F48070216E0860A56D94F834
:102D10005C0000F01F01012088406860D4E91910B0
:102D20004860E06E40B1E06E006820F48070E16EB3
:102D30000860D4E91C10486000BF002084F834000B
:102D400000BF012084F83500206D10B12046216DB0
:102D5000884700203EE600001000024010040240B8
:102D60000854025870B504460CB9012070BDD8490A
:102D70002068884249D0D64918312068884244D01A
:102D8000D3493031206888423FD0D149483120684A
:102D900088423AD0CE4960312068884235D0CC494B
:102DA00078312068884230D0C94990312068884203
:102DB0002BD0C749A8312068884226D0C549206851
:102DC000884222D0C3491831206888421DD0C149A9
:102DD00030312068884218D0BE4948312068884286
:102DE00013D0BC496031206888420ED0B94978318F
:102DF0002068884209D0B74990312068884204D0C1
:102E0000B449A8312068884206D12068006820F0C3
:102E100001002168086005E02068006820F00100DA
:102E200021680860AA492068884249D0A849183119
:102E30002068884244D0A6493031206888423FD07B
:102E4000A3494831206888423AD0A14960312068BE
:102E5000884235D09E4978312068884230D09C49DC
:102E60009031206888422BD09949A8312068884247
:102E700026D098492068884222D096491831206887
:102E800088421DD0934930312068884218D091493A
:102E900048312068884213D08E49603120688842CA
:102EA0000ED08C4978312068884209D08949903108
:102EB0002068884204D08749A8312068884201D11F
:102EC000012000E00020C8B10020216808602168CE
:102ED0004860216888602168C860216808612120F5
:102EE000216848612046FDF7A1FE064694F85C0083
:102EF00000F01F013F208840B06043E07649206821
:102F0000884222D074491431206888421DD0724909
:102F100028312068884218D06F493C3120688842A7
:102F200013D06D495031206888420ED06A4964310F
:102F30002068884209D0684978312068884204D0E6
:102F400065498C312068884201D1012000E00020D1
:102F5000B0B100202168086021684860216888605D
:102F60002168C860216808612046FDF75FFE0546BC
:102F700094F85C0000F01F0101208840686001E0C7
:102F80000120F3E652492068884270D05049183138
:102F9000206888426BD04E4930312068884266D024
:102FA0004B4948312068884261D0494960312068E6
:102FB00088425CD0464978312068884257D04449DD
:102FC00090312068884252D04149A8312068884217
:102FD0004DD040492068884249D03E491831206888
:102FE000884244D03B493031206888423FD039493B
:102FF0004831206888423AD036496031206888429A
:1030000035D0344978312068884230D03149903108
:10301000206888422BD02F49A8312068884226D0CA
:103020002D492068884222D02B49143120688842DB
:103030001DD0294928312068884218D026493C31C2
:103040002068884213D024495031206888420ED02D
:10305000214964312068884209D01F4978312068AD
:10306000884204D01C498C312068884201D101205B
:1030700000E00020E0B12046FDF74EFE206E28B1B2
:103080000020216E0860D4E919104860606858B1CA
:103090006068082808D82046FDF7A0FE0020E16EF1
:1030A0000860D4E91C1048600020E0662067606773
:1030B0000020E06320646064A064E06420656065D3
:1030C00084F8350000BF84F8340000BF00BF4DE62F
:1030D0001000024010040240085402580146486D96
:1030E000704700002DE9F84F044600200090FE488C
:1030F00000684FF41651B0FBF1FAA66DD4F8588071
:103100003768D8F80090F9492068884249D0F749D3
:1031100018312068884244D0F44930312068884210
:103120003FD0F2494831206888423AD0EF496031B7
:103130002068884235D0ED4978312068884230D007
:10314000EA499031206888422BD0E849A8312068AC
:10315000884226D0E6492068884222D0E4491831C6
:10316000206888421DD0E24930312068884218D05A
:10317000DF4948312068884213D0DD49603120683A
:1031800088420ED0DA4978312068884209D0D8497F
:1031900090312068884204D0D549A83120688842FF
:1031A00001D1012000E0002000287DD094F85C00CF
:1031B00000F01F01082088403840002868D0CB4923
:1031C0002068884249D0C94918312068884244D0D3
:1031D000C6493031206888423FD0C4494831206810
:1031E00088423AD0C14960312068884235D0BF4911
:1031F00078312068884230D0BC49903120688842BC
:103200002BD0BA49A8312068884226D0B849206816
:10321000884222D0B6491831206888421DD0B4496E
:1032200030312068884218D0B1494831206888423E
:1032300013D0AF496031206888420ED0AC49783154
:103240002068884209D0AA4990312068884204D079
:10325000A749A8312068884204D12068006800F09E
:10326000040003E02068006800F0080080B12068D6
:10327000006820F004002168086094F85C0000F009
:103280001F0108208840B060606D40F0010060655B
:1032900094F85C0000F01F01012088403840E8B33A
:1032A00092492068884200E0B8E24BD08F4918313B
:1032B0002068884246D08D4930312068884241D00C
:1032C0008A494831206888423CD08849603120686A
:1032D000884237D0854978312068884232D0834986
:1032E0009031206888422DD08049A83120688842DA
:1032F00028D07F492068884224D07D491831206831
:1033000088421FD07A493031206888421AD07849E3
:1033100048312068884215D0754900E026E06031C8
:10332000206888420ED0724978312068884209D0DE
:103330006F4990312068884204D06D49A8312068D7
:10334000884204D12068406900F0800002E02068D3
:103350000068002050B194F85C0000F01F010120CB
:103360008840B060606D40F00200606594F85C00D9
:1033700000F01F01042088403840E8B35B49206812
:1033800088424BD0594918312068884246D0574965
:1033900030312068884241D0544948312068884201
:1033A0003CD0524960312068884237D04F4978314B
:1033B0002068884232D04D499031206888422DD013
:1033C0004A49A8312068884228D049492068884263
:1033D00024D047491831206888421FD044493031F1
:1033E000206888421AD0424948312068884215D066
:1033F0003F496031206800E024E088420ED03C491B
:1034000078312068884209D0394990312068884253
:1034100004D03749A8312068884204D12068006868
:1034200000F0020002E020680068002050B194F82B
:103430005C0000F01F0104208840B060606D40F027
:103440000400606594F85C0000F01F0110208840C3
:103450003840E8B325492068884251D023491831C3
:10346000206888424CD0214930312068884247D0BA
:103470001E4948312068884242D01C49603120688A
:1034800088423DD0194978312068884238D01749A0
:1034900090312068884233D01449A831206888428E
:1034A0002ED01349206888422AD01149183120684B
:1034B000884225D00E4930312068884220D00C49FE
:1034C0004831206888421BD009496031206800E0FB
:1034D0004DE0884214D006497831206888420FD0E8
:1034E00003499031206805E09C0000241000024050
:1034F00010040240884203D0FE492068884204D16B
:103500002068006800F0080003E02068006800F010
:10351000040060B394F85C0000F01F0110208840A4
:10352000B0602068006800F4802080B120680068E6
:1035300000F4002028B9206CC8B12046216C8847CF
:1035400015E0A06C98B12046A16C88470FE0206878
:10355000006800F4807028B92068006820F0080036
:1035600021680860206C10B12046216C884794F8CF
:103570005C0000F01F0120208840384000287DD0EA
:10358000DD492068884249D0DB49183120688842EB
:1035900044D0D9493031206888423FD0D64948319B
:1035A000206888423AD0D44960312068884235D0BA
:1035B000D14978312068884230D0CF499031206895
:1035C00088422BD0CC49A8312068884226D0C949EE
:1035D000A8392068884221D0C6499039206888429D
:1035E0001CD0C44978392068884217D0C149603955
:1035F0002068884212D0BF494839206888420DD0DF
:10360000BC4930392068884208D0BA491839206846
:10361000884203D0B7492068884204D120680068F6
:1036200000F0100003E02068006800F0020028B3FA
:1036300094F85C0000F01F0120208840B06094F8EE
:10364000350004282DD12068006820F0160021687C
:1036500008602068406920F0800021684861206C83
:1036600008B9A06C28B12068006820F00800216823
:10367000086094F85C0000F01F0100E03FE03F208C
:103680008840B06000BF002084F8340000BF0120F3
:1036900084F83500206D10B12046216D8847BDE8C3
:1036A000F88F2068006800F4802080B120680068EE
:1036B00000F4002028B9606C08B32046616C88478C
:1036C0001DE0E06BD8B12046E16B884717E0206829
:1036D000006800F4807068B92068006820F010006D
:1036E0002168086000BF002084F8340000BF01207A
:1036F00084F83500E06B10B12046E16B8847606DBF
:1037000000287DD0606D00F00100E8B3042084F84B
:1037100035007949206888424BD0774918312068B4
:10372000884246D0744930312068884241D072497D
:103730004831206888423CD06F4960312068884217
:1037400037D06D4978312068884232D06A4990314B
:10375000206888422DD06849A8312068884228D046
:103760006449A8392068884223D06249903920688A
:1037700088421ED05F4978392068884219D05D4957
:1037800060392068884200E041E012D05949483948
:10379000206888420DD0574930392068884208D0C7
:1037A000544918392068884203D052492068884219
:1037B00006D12068006820F001002168086005E05B
:1037C0002068006820F001002168086000BF0098B0
:1037D000401C0090504500D905E02068006800F0CA
:1037E00001000028F3D100BF00BF002084F834009E
:1037F00000BF2068006800F0010028B1032000E04D
:103800000BE084F8350002E0012084F83500E06C1C
:10381000002802D02046E16C8847D9E1374920686A
:10382000884222D035491431206888421DD033495E
:1038300028312068884218D030493C3120688842BD
:1038400013D02E495031206888420ED02B49643164
:103850002068884209D0294978312068884204D0FC
:1038600026498C312068884201D1012000E00020E7
:103870000028D2D02068056894F85C0000F01F0191
:103880000420884000EA0900D0B305F00400B8B372
:1038900094F85C0000F01F0104208840C8F8040080
:1038A00005F4004080B105F4803030B9A06C0028E8
:1038B000B3D02046A16C88478AE1206C0028ACD0A8
:1038C0002046216C884783E105F02000F0BB0A49BF
:1038D0002068884252D008491831206888424DD06B
:1038E000054930312068884248D003494831206872
:1038F000884206E0B8040240100002400854025812
:103900004FE03BD0B3492068884237D0B1491831E5
:103910002068884232D0AF493031206888422DD0AB
:10392000AC4948312068884228D0AB492068884299
:1039300024D0A9491831206888421FD0A6493031C7
:10394000206888421AD0A449483100E023E020686A
:10395000884213D0A0496031206888420ED09E4929
:1039600078312068884209D09B499031206888428C
:1039700004D09949A8312068884206D1206800689F
:1039800020F008002168086005E02068006820F049
:10399000040021680860206C10B32046216C884721
:1039A00016E194F85C0000F01F010220884000EA54
:1039B0000900E8B305F00200D0B394F85C0000F011
:1039C0001F0102208840C8F8040005F4004070B1CF
:1039D00005F4803028B9606C10B12046616C8847CE
:1039E000F6E0E06BF0B32046E16B8847F0E005F0CD
:1039F0002000C0BB77496039206888424DD07549A6
:103A000048392068884248D0724930392068884255
:103A100043D070491839206888423ED06D492068EB
:103A200088423AD06B4918312068884235D000E08E
:103A30004EE068493031206888422ED065494831CF
:103A40002068884229D064492068884225D062498C
:103A500018312068884220D05F4930312068884280
:103A60001BD001E06EE02DE05B49483120688842C0
:103A700013D059496031206888420ED056497831B8
:103A80002068884209D0544990312068884204D087
:103A90005149A8312068884206D12068006820F08A
:103AA00014002168086005E02068006820F00A0022
:103AB0002168086000BF002084F8340000BF0120A6
:103AC00084F83500E06BE8B32046E16B88477FE07F
:103AD00094F85C0000F01F010820884000EA09000B
:103AE00080B305F0080068B33A496039206888421D
:103AF0004AD0384948392068884245D0354930395C
:103B00002068884240D033491839206888423BD029
:103B100030492068884237D02E49183120688842C1
:103B200032D02C493031206888422DD02949483183
:103B30002068884228D028492068884224D0264915
:103B4000183100E044E0206888421DD0224930311D
:103B50002068884218D0204948312068884213D014
:103B60001D496031206888420ED01B497831206899
:103B7000884209D0184990312068884204D01649FB
:103B8000A8312068884206D12068006820F01C0017
:103B90002168086005E02068006820F00E002168B8
:103BA000086094F85C0000F01F0101208840C8F80C
:103BB00004000120606500BF002084F8340000BFCD
:103BC000012084F83500E06C10B12046E16C884794
:103BD00000BF64E570000240100402402DE9F0418E
:103BE000044601F0D7F8804614B90120BDE8F08101
:103BF000FE492068884249D0FC4918312068884233
:103C000044D0FA493031206888423FD0F7494831E2
:103C1000206888423AD0F54960312068884235D022
:103C2000F24978312068884230D0F04990312068DC
:103C300088422BD0ED49A8312068884226D0EC4933
:103C40002068884222D0EA491831206888421DD075
:103C5000E74930312068884218D0E549483120686A
:103C6000884213D0E2496031206888420ED0E04992
:103C700078312068884209D0DD4990312068884237
:103C800004D0DB49A8312068884201D1012000E03E
:103C90000020002873D0606A00B100BF00BF002080
:103CA00084F8340000BF022084F83500CF49206832
:103CB000884249D0CD4918312068884244D0CB4948
:103CC0003031206888423FD0C84948312068884256
:103CD0003AD0C64960312068884235D0C34978312E
:103CE0002068884230D0C1499031206888422BD06A
:103CF000BE49A8312068884226D0BD492068884244
:103D000022D0BB491831206888421DD0B8493031D3
:103D10002068884218D0B64948312068884213D0BC
:103D2000B3496031206888420ED0B14978312068AB
:103D3000884209D0AE4990312068884204D0AC490D
:103D4000A8312068884206D12068006820F0010070
:103D50002168086005E02068006820F00100216803
:103D600008600DE001F016F8A0EB0800052807D95F
:103D700020206065032084F83500012036E76AE0E2
:103D80002068006800F001000028EBD12068056879
:103D900098480540D4E90201084321690843616954
:103DA0000843A1690843E1690843216A08430543C0
:103DB000606A042803D1D4E90B01084305438E4807
:103DC00000686FF30F00B0F1005F1DD36068292811
:103DD00002D360682E2811D960683F2802D360683A
:103DE00042280BD96068472802D36068482805D963
:103DF00060684F2804D36068522801D8012000E091
:103E0000002008B145F480152068056020684569E8
:103E100025F00705606A0543606A04280DD1A06A91
:103E20000543E06A48B12046FDF724F828B1402058
:103E30006065012084F83500D8E620684561204699
:103E4000FCF7F4FE064694F85C0000F01F013F20EA
:103E50008840B0609EE069492068884222D0674966
:103E60001431206888421DD0644928312068884276
:103E700018D062493C312068884213D05F495031E4
:103E8000206888420ED05D4964312068884209D09C
:103E90005A4978312068884204D058498C312068CA
:103EA000884201D1012000E00020E0B3534920689E
:103EB000884222D051491431206888421DD04F4990
:103EC00028312068884218D04C493C31206888420B
:103ED00013D04A495031206888420ED04749643196
:103EE0002068884209D0454978312068884204D04A
:103EF00042498C312068884201D1012000E0002035
:103F000000B100BF00BF002084F8340000BF0220D1
:103F100084F835002068056839480540A0684028C5
:103F200002D1102106E02EE0A068802801D1C10155
:103F300000E00021E06841EAD001206941EAD001B7
:103F4000606941EAD001A06941EAD001E06941EA33
:103F5000D001206A41EA1010054320680560274916
:103F60002068401A1421B0FBF1F08000E065204683
:103F7000FCF75CFE074694F85C0000F01F0101208E
:103F80008840786006E040206065032084F83500B2
:103F900001202BE61549206888427FD0134918314B
:103FA000206888427AD0114930312068884275D023
:103FB0000E4948312068884270D00C496031206831
:103FC00088426BD0094978312068884266D0074919
:103FD00090312068884261D00449A8312068884225
:103FE0005CD003492068884258D00BE010000240A2
:103FF000100402403F8010FE0010005C085402587C
:104000000F00FEFF3B4918312068884246D03949ED
:1040100030312068884241D0364948312068884292
:104020003CD0344960312068884237D031497831FA
:104030002068884232D02F499031206888422DD0A4
:104040002C49A8312068884228D02B492068884212
:1040500024D029491431206888421FD026492831AC
:10406000206888421AD024493C312068884215D003
:10407000214950312068884210D01F49643120689E
:1040800088420BD01C4978312068884206D01A49F2
:104090008C312068884200E000E001D1012000E07E
:1040A000002000B32046FCF737FEA068802801D12D
:1040B000002060602079216E0860D4E91910486002
:1040C000606860B16068082809D82046FCF786FE61
:1040D0000020E16E0860D4E91C10486003E0002075
:1040E000E0662067606700206065012084F8350085
:1040F00000207BE510040240085402582DE9F041ED
:1041000004460D4616461F464FF0000814B901201C
:10411000BDE8F08100BF94F83400012801D10220ED
:10412000F6E7012084F8340000BF94F83500012838
:104130007ED1022084F8350000206065DD492068CA
:10414000884249D0DB4918312068884244D0D94997
:104150003031206888423FD0D649483120688842B3
:104160003AD0D44960312068884235D0D14978317D
:104170002068884230D0CF499031206888422BD0C7
:10418000CC49A8312068884226D0CB492068884293
:1041900022D0C9491831206888421DD0C649303123
:1041A0002068884218D0C44948312068884213D01A
:1041B000C1496031206888420ED0BF4978312068FB
:1041C000884209D0BC4990312068884204D0BA495D
:1041D000A8312068884206D12068006820F00100DC
:1041E0002168086005E02068006820F0010021686F
:1041F00008603B46324629462046FCF793FEAD490F
:10420000206888424BD0AB4918312068884246D09C
:10421000A84930312068884241D0A64948312068F9
:1042200088423CD0A34960312068884237D000E002
:1042300033E1A04978312068884230D09D499031DF
:10424000206888422BD09B49A8312068884226D01C
:1042500099492068884222D09749183120688842BD
:104260001DD0954930312068884218D09249483194
:104270002068884213D090496031206888420ED06F
:104280008D4978312068884209D08B499031206867
:10429000884204D08849A8312068884201D1012091
:1042A00000E0002040B12068006820F01E0040F0CF
:1042B00016002168086008E02068006820F00E0001
:1042C00040F00A002168086000BF7A4920688842EF
:1042D00070D078491831206888426BD075493031E8
:1042E0002068884266D0734948312068884261D08E
:1042F00070496031206888425CD06E49783120680E
:10430000884257D06B4990312068884252D0694921
:10431000A831206888424DD067492068884249D03A
:10432000654918312068884244D06349303120689B
:1043300088423FD060494831206888423AD05E497F
:1043400060312068884235D05B49783120688842E6
:1043500030D059499031206888422BD05649A83135
:104360002068884226D055492068884222D0534987
:104370001431206888421DD0504928312068884275
:1043800018D04E493C312068884213D04B495031F7
:10439000206888420ED0494964312068884209D09B
:1043A000464978312068884204D044498C312068DD
:1043B000884201D1012000E0002090B1206E006809
:1043C00000F4803028B1206E006840F48070216EC7
:1043D0000860E06E28B1E06E006840F48070E16E25
:1043E000086034492068884249D032491831206831
:1043F000884244D02F493031206888423FD02D492F
:104400004831206888423AD02A4960312068884281
:1044100035D0284978312068884230D025499031FC
:10442000206888422BD02349A8312068884226D0B2
:1044300021492068884222D01F49183120688842CB
:104440001DD01D4930312068884218D01A494831A2
:104450002068884213D018496031206888420ED005
:10446000154978312068884209D013499031206875
:10447000884204D01049A8312068884206D12068BB
:10448000006840F001002168086010E020680068C2
:1044900040F001002168086009E000BF002084F8B6
:1044A000340000BF4FF4006060654FF001084046E3
:1044B0002EE600001000024010040240085402588A
:1044C0002DE9F04104460E46002700BF4848007D14
:1044D000012802D10220BDE8F0810120444908757D
:1044E00000BF00208861207900F0010030B1012177
:1044F0004CF25030FCF70AFF00B10127207900F0A0
:104500000200022806D102214CF25030FCF7FEFED8
:1045100000B10127002F63D12068012828D16168EC
:104520002069FCF7A3FE207900F0010060B10121B1
:104530004CF25030FCF7EAFE00B101272D48C0686C
:1045400020F008002B49C860207900F00200022802
:1045500046D102214CF25030FCF7D8FE00B10127C1
:104560002548006820F008002249C1F80C0137E016
:104570004FF0FF303060A5682CE028462269616862
:10458000FCF726FE207900F0010060B101214CF219
:104590005030FCF7BBFE07461648C06840F2047175
:1045A00088431449C860207900F0020002280DD128
:1045B00002214CF25030FCF7A9FE07460E48006875
:1045C00040F2047188430B49C1F80C010FB135600A
:1045D00005E06D1CD4E902100844A842CDD800BF04
:1045E00000BF00200249087500BF384673E700008D
:1045F000087C0024002000520C210052704700006B
:1046000070B582480069C0F3004000284AD0804855
:104610000078012829D17E484068401E7C494860C6
:104620000846406898B1C868FFF7E8FF4FF480304B
:10463000764948617648C068401C7549C86008469C
:10464000C668826801213046FCF7C2FD2AE04FF0BF
:10465000FF306F49C86000200870C868FFF7CEFFC0
:104660004FF48030694948611CE069480478022CA5
:1046700001D0072C03D10120FFF7C0FF05E0032C78
:1046800003D163490869FFF7B9FF042C0AD0052C50
:1046900008D0062C06D000205D4908704FF4803009
:1046A0005A4948615B480068C0F3004000284DD07B
:1046B0005748007804282BD155484068401E54497B
:1046C000486008464068A0B1C868FFF797FF4FF4FC
:1046D00080305049091D08604D48C068401C4C4955
:1046E000C8600846C668826802213046FCF770FD43
:1046F0002CE04FF0FF304649C86000200870C868C1
:10470000FFF77CFF4FF480304249091D08601DE02F
:104710003F480478052C01D0072C03D10220FFF775
:104720006DFF05E0062C03D139490869FFF766FFE4
:10473000012C0BD0022C09D0032C07D000203449C7
:1047400008704FF480303349091D08602F48006914
:1047500000F4DC05E5B12E48806928432C498861C6
:104760002A48456108460478012C03D1C668A01E7A
:10477000C86007E0022C01D0072C01D1012601E01E
:1047800023480669002022490870304600F066F888
:104790002048006800F4DC0515B31D48806945F029
:1047A000004108431A49886125F000401949091D54
:1047B000086017480478042C04D1C668601F1449A7
:1047C000C86007E0052C01D0072C01D1022601E0CA
:1047D0000F48066900200E490870304600F03EF888
:1047E0000B48007888B90948C06820F4DE00074902
:1047F000C8600848001F006820F4DE00C1F80C0102
:1048000000BF00200249087500BF70BD00200052A3
:10481000087C0024102100520E48C06840F00100BE
:104820000C49C8600846C06800F0010008B90120C2
:1048300070470948006840F001000649C1F80C01C2
:104840000548006800F0010008B90120F0E70020E9
:10485000EEE70000002000520C21005270470000DB
:104860002DE9F05F83460C461746A046B9464FF047
:10487000080A00BF4248007D012802D10220BDE89D
:10488000F09F01203E49087500BFB4F1006F04D3CA
:10489000B4F1016F01D2012509E0B4F1016F04D335
:1048A000B4F1026F01D2022501E00120E7E7002008
:1048B0003349886129464CF25030FCF727FD064603
:1048C000002E55D1012D06D12E48C06840F00200BF
:1048D0002C49C86006E02C48006840F002002949D5
:1048E000C1F80C0100BF00BF00BFBFF36F8F00BF56
:1048F00000BF00BF00BF00BF00BFBFF34F8F00BFAE
:1049000000BF00BF00BFD9F80000C8F8000008F1E0
:10491000040809F10409AAF1010000F0FF0ABAF144
:10492000000FF0D100BF00BF00BFBFF36F8F00BF0B
:1049300000BF00BF00BF00BF00BFBFF34F8F00BF6D
:1049400000BF00BF29464CF25030FCF7DFFC0646A2
:10495000012D06D10B48C06820F002000949C8604B
:1049600006E00948006820F002000649C1F80C0181
:1049700000BF00200249087500BF30467FE70000F5
:10498000087C0024002000520C2100521348C0680B
:1049900000F0010058B112481049486011484860C1
:1049A0000846C06800F0010008B1012070470E48B9
:1049B000006800F0010070B109480B49083908602F
:1049C00008480649C1F804010748006800F00100E2
:1049D00008B10120EAE70020E8E7000000200052CB
:1049E00023016745AB89EFCD0C210052F0B50C4691
:1049F0000021504B98E001268E4006EA0402002A6E
:104A00007ED04D4E8F0856F827508E07370F0F2651
:104A1000BE403540494EB04201D100262DE0484EFF
:104A2000B04201D1012628E0464EB04201D1022613
:104A300023E0454EB04201D103261EE0434EB04272
:104A400001D1042619E0424EB04201D1052614E0FE
:104A5000404EB04201D106260FE03F4EB04201D198
:104A600007260AE03D4EB04201D1082605E03C4E43
:104A7000B04201D1092600E00A268F073F0FBE4051
:104A8000AE421FD11E6896431E605E6896435E600C
:104A90004FF0B046366896434FF0B0473E603E4612
:104AA000766896437E608E07370F0F2606FA07F565
:104AB000214E8F0856F82760AE431F4F4FEA910CE6
:104AC00047F82C6006684FEA410C032707FA0CF7F9
:104AD0003E430660CF0800F1200656F827604F07D6
:104AE0004FEAD76C0F2707FA0CF7BE434FEAD10CF9
:104AF00000F1200747F82C60C6684FEA410C00E03F
:104B000011E0032707FA0CF7BE43C6604768012689
:104B10008E40B743476086684FEA410C032707FA87
:104B20000CF7BE438660491C24FA01F6002E7FF480
:104B300062AFF0BD80000058080400580000025821
:104B40000004025800080258000C025800100258D5
:104B50000014025800180258001C02580020025885
:104B600000240258F8B502460023734DDEE0012709
:104B70009F400E6806EA0704002C71D04E68012E93
:104B800008D04E68022E05D04E68112E02D04E6815
:104B9000122E13D190685F000326BE40B0435F0021
:104BA000CE68BE4030439060506801269E40B043BE
:104BB0000E79C6F300169E4030435060D0685F0007
:104BC0000326BE40B0435F008E68BE403043D060D5
:104BD0004E68022E02D04E68122E13D1DF0802F169
:104BE000200656F827005E07F70E0F26BE40B0439A
:104BF0005F07FF0E0E69BE403043DF0802F120065A
:104C000046F8270010685F000326BE40B0430E79C7
:104C100006F003065F00BE40304310604E6806F0A9
:104C20008056B6F1805F1BD100BF444E366846F017
:104C30000206424F3E603E46366806F00206009687
:104C400000BF00BF3E4E9F0856F827009E07370F53
:104C50000F26BE40B0433B4EB24202D100262EE0AA
:104C600063E0394EB24201D1012628E0374EB2420C
:104C700001D1022623E0364EB24201D103261EE0C6
:104C8000344EB24201D1042619E0334EB24201D172
:104C9000052614E0314EB24201D106260FE0304E17
:104CA000B24201D107260AE02E4EB24201D10826B7
:104CB00005E02D4EB24201D1092600E00A269F07E9
:104CC0003F0FBE4030431E4E9F0846F8270028681D
:104CD000A0434E6806F48036B6F5803F00D12043ED
:104CE00028606868A0434E6806F40036B6F5003FB9
:104CF00000D1204368604FF0B0463068A0434E6852
:104D000006F48016B6F5801F00D120434FF0B04660
:104D100030607068A0434E6806F40016B6F5001FB8
:104D200000D120434FF0B04670605B1C0E68DE403F
:104D3000002E7FF41CAFF8BD80000058F4440258E8
:104D400008040058000002580004025800080258E5
:104D5000000C0258001002580014025800180258A3
:104D6000001C025800200258002402580246136911
:104D70000B400BB1012000E0002070470AB18161B7
:104D800001E00B048361704701480068000C704724
:104D90000010005C0148006870470000A400002477
:104DA00003480068034909780844014908607047CE
:104DB000A4000024AC00002410B5032000F0CAF8C1
:104DC00001F0B8FA10490968C1F303210F4A515C98
:104DD00001F01F0120FA01F40B48006800F00F00F9
:104DE0001146085C00F01F0024FA00F00849086032
:104DF000084804600F2000F00FF808B1012010BD32
:104E000000F036F80020FAE7184402583CC30008C6
:104E1000A00000249C00002470B5044611480078CE
:104E200008B9012070BD0F4800784FF47A71B1FBCA
:104E3000F0F00D490968B1FBF0F5284601F050FF8C
:104E400008B10120EEE7102C07D200222146501EA7
:104E500000F042F80548046001E00120E2E700208C
:104E6000E0E70000AC0000249C000024A80000241F
:104E70007047000010B501460846002817DB00F017
:104E80001F0301229A400B4B440943F8242000BF22
:104E900000BF00BFBFF34F8F00BF00BF00BF00BF08
:104EA00000BF00BFBFF36F8F00BF00BF00BF00BFD8
:104EB00010BD000080E100E001460846002809DB43
:104EC00000F01F0301229A4043099B0003F1E023F5
:104ED000C3F8002100BF70472DE9F05F80460D4602
:104EE000164605F06BFD074639462A46334601F063
:104EF0000700C0F1070ABAF1040F02D94FF0040A03
:104F000001E0C0F1070AD14600F1040ABAF1070F27
:104F100002D24FF0000A01E0A0F1030AD4464FF09C
:104F2000010A0AFA09FAAAF1010A0AEA020A0AFAC5
:104F30000CFA4FF0010B0BFA0CFBABF1010B0BEA77
:104F4000030B4AEA0B042146404605F03FFDBDE84D
:104F5000F09F000000BF00F00702064B19684FF6F3
:104F6000FF031940044B0B4343EA0221014B196034
:104F700000BF70470CED00E00000FA0570B5044674
:104F800015480068C0F3800048B91348006800F075
:104F90000700A04201D0012070BD0020FCE70E48B0
:104FA000006820F0070020430B490860FFF7F2FE7D
:104FB000054607E0FFF7EEFE401BB0F57A7F01D90A
:104FC0000120E9E7044808380068C0F340300028B1
:104FD000F0D00020E0E700000C48025810B501F0C6
:104FE0005FF905490968C1F30211044A515C01F0F7
:104FF0001F01C84010BD0000204402583CC30008F7
:1050000070B50146844D2D6805F00303824D2D686F
:10501000C5F30530804D2D1D2D68C5F300147E4D60
:1050200014352D68C5F3CC0515FB04F501EE105AB7
:10503000B8EE411AF0EE410A00286FD023B1012BDF
:105040004ED0022B6BD16BE0734D283D2D68C5F31C
:1050500040153DB3704D283D2D68C5F3C1066F4D19
:1050600025FA06F201EE102AF8EE411A01EE100AB6
:10507000B8EE411A81EE812A9FED691AC0EE811ABD
:10508000654D10352D68C5F3080501EE105AB8EED0
:10509000411A31EE811AF7EE001A31EE211A22EE92
:1050A000010A1CE001EE100AB8EE411ADFED5D1AAC
:1050B00081EE812A9FED5A1AC0EE811A564D1035A5
:1050C0002D68C5F3080501EE105AB8EE411A31EE0D
:1050D000811AF7EE001A31EE211A22EE010A5BE086
:1050E00001EE100AB8EE411ADFED4F1A81EE812A67
:1050F0009FED4B1AC0EE811A474D10352D68C5F350
:10510000080501EE105AB8EE411A31EE811AF7EE99
:10511000001A31EE211A22EE010A3DE077E01DE08F
:1051200001EE100AB8EE411A9FED402AC2EE011AB4
:105130009FED3B1A80EE812A374D10352D68C5F35F
:10514000080501EE105AB8EE411A32EE011AB7EE18
:10515000002A31EE021A21EE810A1DE001EE100A4A
:10516000B8EE411ADFED301A81EE812A9FED2C1A3C
:10517000C0EE811A284D10352D68C5F3080501EEE3
:10518000105AB8EE411A31EE811AF7EE001A31EEDC
:10519000211A22EE010A00BF00BF1F4D10352D68F5
:1051A000C5F3462501EE105AB8EE411AF7EE001A83
:1051B00031EE211AC0EE011ABCEEE11A81ED001A9F
:1051C000154D10352D68C5F3064501EE105AB8EEA1
:1051D000411AF7EE001A31EE211AC0EE011ABCEEA8
:1051E000E11A81ED011A0C4D10352D68C5F30665E5
:1051F00001EE105AB8EE411AF7EE001A31EE211AFC
:10520000C0EE011ABCEEE11A81ED021A03E000259E
:105210000D604D608D6070BD284402580090D00331
:10522000000000460024744C0024744A20BCBE4B8D
:1052300070B50146844D2D6805F00303824D2D683D
:10524000C5F30550804D2D1D2D68C5F300247E4DFE
:105250001C352D68C5F3CC0515FB04F501EE105A7D
:10526000B8EE411AF0EE410A00286FD023B1012BAD
:105270004ED0022B6BD16BE0734D283D2D68C5F3EA
:1052800040153DB3704D283D2D68C5F3C1066F4DE7
:1052900025FA06F201EE102AF8EE411A01EE100A84
:1052A000B8EE411A81EE812A9FED691AC0EE811A8B
:1052B000654D18352D68C5F3080501EE105AB8EE96
:1052C000411A31EE811AF7EE001A31EE211A22EE60
:1052D000010A1CE001EE100AB8EE411ADFED5D1A7A
:1052E00081EE812A9FED5A1AC0EE811A564D18356B
:1052F0002D68C5F3080501EE105AB8EE411A31EEDB
:10530000811AF7EE001A31EE211A22EE010A5BE053
:1053100001EE100AB8EE411ADFED4F1A81EE812A34
:105320009FED4B1AC0EE811A474D18352D68C5F315
:10533000080501EE105AB8EE411A31EE811AF7EE67
:10534000001A31EE211A22EE010A3DE077E01DE05D
:1053500001EE100AB8EE411A9FED402AC2EE011A82
:105360009FED3B1A80EE812A374D18352D68C5F325
:10537000080501EE105AB8EE411A32EE011AB7EEE6
:10538000002A31EE021A21EE810A1DE001EE100A18
:10539000B8EE411ADFED301A81EE812A9FED2C1A0A
:1053A000C0EE811A284D18352D68C5F3080501EEA9
:1053B000105AB8EE411A31EE811AF7EE001A31EEAA
:1053C000211A22EE010A00BF00BF1F4D18352D68BB
:1053D000C5F3462501EE105AB8EE411AF7EE001A51
:1053E00031EE211AC0EE011ABCEEE11A81ED001A6D
:1053F000154D18352D68C5F3064501EE105AB8EE67
:10540000411AF7EE001A31EE211AC0EE011ABCEE75
:10541000E11A81ED011A0C4D18352D68C5F30665AA
:1054200001EE105AB8EE411AF7EE001A31EE211AC9
:10543000C0EE011ABCEEE11A81ED021A03E000256C
:105440000D604D608D6070BD284402580090D003FF
:10545000000000460024744C0024744A20BCBE4B5B
:105460002DE9F04104460025A846206800F00060C0
:10547000B0F1006F30D1606E48B1B0F5801F0DD033
:10548000B0F5001F10D0B0F5401F15D113E0F9485A
:10549000006840F40030F74908600FE00221201D49
:1054A00002F0ECFE054609E0022104F1240002F0BE
:1054B00097FF054602E001E0012500BF00BF55B996
:1054C000EC482430006820F44010616E0843E9493C
:1054D0002431086000E0A846208800F48070B0F510
:1054E000807F2DD1606D05281AD2DFE800F0030A15
:1054F00010171800DF48006840F40030DD490860EC
:1055000010E00021201D02F0B9FE05460AE000214E
:1055100004F1240002F064FF054603E002E001E02C
:10552000012500BF00BF55B9D2482430006820F0E3
:105530000700616D0843CF492431086000E0A846A8
:10554000208800F40070B0F5007F33D1A06D802872
:1055500017D003DC40B140281CD10CE0C02817D084
:10556000B0F5807F16D114E0C248006840F40030E6
:10557000C049086010E00021201D02F07FFE0546B2
:105580000AE0002104F1240002F02AFF054603E0AE
:1055900002E001E0012500BF00BF55B9B548243045
:1055A000006820F4E070A16D0843B249243108601E
:1055B00000E0A846208800F48060B0F5806F38D104
:1055C000D4F8A400B0F5800F19D004DC50B1B0F5C8
:1055D000001F1DD10DE0B0F5C00F17D0B0F5000FC2
:1055E00016D114E0A348006840F40030A1490860D7
:1055F00010E00021201D02F041FE05460AE00021D6
:1056000004F1240002F0ECFE054603E002E001E0B4
:10561000012500BF00BF5DB996482C30006820F41A
:105620006000D4F8A410084392492C31086000E0CF
:10563000A846208800F40060B0F5006F38D1D4F897
:10564000A800B0F1007F19D004DC50B1B0F1807F28
:105650001DD10DE0B0F1407F17D0B0F1806F16D1B1
:1056600014E08448006840F400308249086010E08B
:105670000021201D02F002FE05460AE0002104F18F
:10568000240002F0ADFE054603E002E001E0012542
:1056900000BF00BF5DB977482C30006820F0E060A3
:1056A000D4F8A810084373492C31086000E0A846DC
:1056B000206800F00070B0F1007F27D1A06CA0B18D
:1056C000102804D0202809D030280FD10CE06948D8
:1056D000006840F400306749086009E00221201D9D
:1056E00002F0CCFD054603E002E001E0012500BF29
:1056F00000BF55B95F482030006820F03000A16C31
:1057000008435C492031086000E0A846208800F486
:105710008050B0F5805F36D1E06DB0F5005F19D0F4
:1057200004DC50B1B0F5805F1DD10DE0B0F5405FF5
:1057300017D0B0F5804F16D114E04E48006840F401
:1057400000304C49086010E00021201D02F096FD59
:1057500005460AE0002104F1240002F041FE05465E
:1057600003E002E001E0012500BF00BF55B9414858
:105770002430006820F4E040E16D08433D492431C5
:10578000086000E0A846208800F40050B0F5005FF3
:1057900034D1206EB0F5403F1DD007DC68B1B0F5C4
:1057A000803F0BD0B0F5003F18D10DE0B0F5802F51
:1057B00012D0B0F5A02F11D10FE011E00121201D72
:1057C00002F05CFD05460BE0012104F1240002F02B
:1057D00007FE054604E003E002E001E0012500BF0A
:1057E00000BF55B923482430006820F4E020216E22
:1057F000084320492431086000E0A846208800F4CE
:105800008040B0F5804F38D1D4F8AC00B0F1405FA3
:105810001DD007DC68B1B0F1805F0BD0B0F1005F44
:1058200018D10DE0B0F1804F12D0B0F1A04F11D1DE
:105830000FE011E00121201D02F020FD05460BE0E4
:10584000012104F1240002F0CBFD054604E003E051
:1058500002E001E0012500BF00BF6DB905482C3012
:10586000006820F0E040D4F8AC10084301492C3126
:10587000086002E02C440258A846208800F400404A
:10588000B0F5004F26D1E06E98B1B0F1805F03D043
:10589000B0F1005F0ED106E0F948006840F4003036
:1058A000F749086008E00121201D02F0E7FC0546E9
:1058B00002E001E0012500BF00BF55B9F0482430E7
:1058C000006820F04050E16E0843ED492431086043
:1058D00000E0A846206800F08070B0F1807F27D1FA
:1058E000606CA0B1012804D0022809D003280FD190
:1058F0000CE0E348006840F40030E149086009E04A
:105900000221201D02F0BAFC054603E002E001E09E
:10591000012500BF00BF55B9D9482030006820F0EC
:105920000300616C0843D6492031086000E0A846B6
:10593000206800F48000B0F5800F7DD1D148006868
:1059400040F48070CF490860FFF724FA064606E06D
:10595000FFF720FA801B642801D9032505E0C94818
:10596000006800F480700028F2D000BF85BBC448F6
:105970004430006800F44070B4F8B01001F4407195
:10598000884213D0BE484430006820F44077BC48B9
:105990004430006840F48030B9494431086008461A
:1059A000006820F48030086008460760D4F8B00032
:1059B000B0F5807F15D1FFF7EDF9064609E0FFF756
:1059C000E9F9801B41F28831884202D9032507E0BA
:1059D00038E0AB4844300068C0F340000028EED007
:1059E00000BF55BB00BFB4F8B00000F44070B0F584
:1059F000407F0ED1A2481C38006820F47C51A24A96
:105A0000D4F8B000104041EA10109D491C390860DC
:105A100007E09B481C38006820F47C5098491C39EA
:105A20000860974844300068B4F8B010C1F30B0127
:105A300008439349443101E005E001E0086002E0D9
:105A4000A84600E0A846207800F0010068B3A06FE7
:105A5000182819D005DC48B1082808D0102816D11C
:105A60000BE0202811D0282811D10FE011E00121EE
:105A7000201D02F003FC05460BE0012104F1240087
:105A800002F0AEFC054604E003E002E001E001257F
:105A900000BF00BF55B97A482830006820F03800B0
:105AA000A16F084376492831086000E0A8462078B5
:105AB00000F00200022828D1606F062815D2DFE826
:105AC00000F003040A11121311E00121201D02F05D
:105AD000D5FB05460BE0012104F1240002F080FC17
